{
  "_format": "hh-sol-artifact-1",
  "contractName": "Escrow",
  "sourceName": "contracts/Escrow.sol",
  "abi": [
    {
      "anonymous": false,
      "inputs": [
        {
          "indexed": true,
          "internalType": "uint256",
          "name": "id",
          "type": "uint256"
        }
      ],
      "name": "Delivered",
      "type": "event"
    },
    {
      "anonymous": false,
      "inputs": [
        {
          "indexed": true,
          "internalType": "uint256",
          "name": "id",
          "type": "uint256"
        }
      ],
      "name": "FundsReleased",
      "type": "event"
    },
    {
      "anonymous": false,
      "inputs": [
        {
          "indexed": true,
          "internalType": "uint256",
          "name": "id",
          "type": "uint256"
        },
        {
          "indexed": true,
          "internalType": "address",
          "name": "creator",
          "type": "address"
        },
        {
          "indexed": true,
          "internalType": "address",
          "name": "arbiter",
          "type": "address"
        },
        {
          "indexed": false,
          "internalType": "address",
          "name": "driver",
          "type": "address"
        },
        {
          "indexed": false,
          "internalType": "uint256",
          "name": "amount",
          "type": "uint256"
        }
      ],
      "name": "NewEscrow",
      "type": "event"
    },
    {
      "anonymous": false,
      "inputs": [
        {
          "indexed": true,
          "internalType": "uint256",
          "name": "id",
          "type": "uint256"
        }
      ],
      "name": "PickedUp",
      "type": "event"
    },
    {
      "inputs": [
        {
          "internalType": "address",
          "name": "_arbiter",
          "type": "address"
        },
        {
          "internalType": "address",
          "name": "_driver",
          "type": "address"
        }
      ],
      "name": "createEscrow",
      "outputs": [],
      "stateMutability": "payable",
      "type": "function"
    },
    {
      "inputs": [
        {
          "internalType": "uint256",
          "name": "",
          "type": "uint256"
        }
      ],
      "name": "escrowToOwner",
      "outputs": [
        {
          "internalType": "address",
          "name": "",
          "type": "address"
        }
      ],
      "stateMutability": "view",
      "type": "function"
    },
    {
      "inputs": [
        {
          "internalType": "uint256",
          "name": "",
          "type": "uint256"
        }
      ],
      "name": "escrows",
      "outputs": [
        {
          "internalType": "address",
          "name": "customer",
          "type": "address"
        },
        {
          "internalType": "address",
          "name": "driver",
          "type": "address"
        },
        {
          "internalType": "address",
          "name": "arbiter",
          "type": "address"
        },
        {
          "internalType": "uint256",
          "name": "amount",
          "type": "uint256"
        },
        {
          "internalType": "bool",
          "name": "pickedUp",
          "type": "bool"
        },
        {
          "internalType": "bool",
          "name": "delivered",
          "type": "bool"
        },
        {
          "internalType": "bool",
          "name": "released",
          "type": "bool"
        }
      ],
      "stateMutability": "view",
      "type": "function"
    },
    {
      "inputs": [
        {
          "internalType": "uint256",
          "name": "_id",
          "type": "uint256"
        }
      ],
      "name": "markDelivered",
      "outputs": [],
      "stateMutability": "nonpayable",
      "type": "function"
    },
    {
      "inputs": [
        {
          "internalType": "uint256",
          "name": "_id",
          "type": "uint256"
        }
      ],
      "name": "markedPickedUp",
      "outputs": [],
      "stateMutability": "nonpayable",
      "type": "function"
    },
    {
      "inputs": [
        {
          "internalType": "uint256",
          "name": "_id",
          "type": "uint256"
        }
      ],
      "name": "releaseToDriver",
      "outputs": [],
      "stateMutability": "payable",
      "type": "function"
    }
  ],
  "bytecode": "0x6080604052348015600f57600080fd5b5061111b8061001f6000396000f3fe6080604052600436106100555760003560e01c8063012f52ee1461005a57806317bb009f1461009d578063834cc6fc146100b9578063b5218c06146100d5578063bd0f38d8146100fe578063eb826a5f1461013b575b600080fd5b34801561006657600080fd5b50610081600480360381019061007c9190610b2b565b610164565b6040516100949796959493929190610bc3565b60405180910390f35b6100b760048036038101906100b29190610b2b565b61023d565b005b6100d360048036038101906100ce9190610c5e565b610484565b005b3480156100e157600080fd5b506100fc60048036038101906100f79190610b2b565b610786565b005b34801561010a57600080fd5b5061012560048036038101906101209190610b2b565b6108f9565b6040516101329190610c9e565b60405180910390f35b34801561014757600080fd5b50610162600480360381019061015d9190610b2b565b61092c565b005b6000818154811061017457600080fd5b90600052602060002090600502016000915090508060000160009054906101000a900473ffffffffffffffffffffffffffffffffffffffff16908060010160009054906101000a900473ffffffffffffffffffffffffffffffffffffffff16908060020160009054906101000a900473ffffffffffffffffffffffffffffffffffffffff16908060030154908060040160009054906101000a900460ff16908060040160019054906101000a900460ff16908060040160029054906101000a900460ff16905087565b600080828154811061025257610251610cb9565b5b906000526020600020906005020190508060020160009054906101000a900473ffffffffffffffffffffffffffffffffffffffff1673ffffffffffffffffffffffffffffffffffffffff163373ffffffffffffffffffffffffffffffffffffffff16146102be57600080fd5b8060040160019054906101000a900460ff1661030f576040517f08c379a000000000000000000000000000000000000000000000000000000000815260040161030690610d45565b60405180910390fd5b8060040160029054906101000a900460ff1615610361576040517f08c379a000000000000000000000000000000000000000000000000000000000815260040161035890610db1565b60405180910390fd5b60008160010160009054906101000a900473ffffffffffffffffffffffffffffffffffffffff1673ffffffffffffffffffffffffffffffffffffffff1682600301546040516103af90610e02565b60006040518083038185875af1925050503d80600081146103ec576040519150601f19603f3d011682016040523d82523d6000602084013e6103f1565b606091505b5050905080610435576040517f08c379a000000000000000000000000000000000000000000000000000000000815260040161042c90610e63565b60405180910390fd5b60018260040160026101000a81548160ff021916908315150217905550827f952b264c8e0a06cddb4bbaa6d6af1d565145329fd95bbe72cb2b53942b2dc96660405160405180910390a2505050565b600034116104c7576040517f08c379a00000000000000000000000000000000000000000000000000000000081526004016104be90610ecf565b60405180910390fd5b60006040518060e001604052803373ffffffffffffffffffffffffffffffffffffffff1681526020018373ffffffffffffffffffffffffffffffffffffffff1681526020018473ffffffffffffffffffffffffffffffffffffffff16815260200134815260200160001515815260200160001515815260200160001515815250908060018154018082558091505060019003906000526020600020906005020160009091909190915060008201518160000160006101000a81548173ffffffffffffffffffffffffffffffffffffffff021916908373ffffffffffffffffffffffffffffffffffffffff16021790555060208201518160010160006101000a81548173ffffffffffffffffffffffffffffffffffffffff021916908373ffffffffffffffffffffffffffffffffffffffff16021790555060408201518160020160006101000a81548173ffffffffffffffffffffffffffffffffffffffff021916908373ffffffffffffffffffffffffffffffffffffffff1602179055506060820151816003015560808201518160040160006101000a81548160ff02191690831515021790555060a08201518160040160016101000a81548160ff02191690831515021790555060c08201518160040160026101000a81548160ff0219169083151502179055505050600060016000805490506106c59190610f1e565b9050336001600083815260200190815260200160002060006101000a81548173ffffffffffffffffffffffffffffffffffffffff021916908373ffffffffffffffffffffffffffffffffffffffff1602179055508273ffffffffffffffffffffffffffffffffffffffff163373ffffffffffffffffffffffffffffffffffffffff16827fb4968714e58313becb0870615829ffef49ac781b64c16db9a49ec212683743d68534604051610779929190610f52565b60405180910390a4505050565b600080828154811061079b5761079a610cb9565b5b906000526020600020906005020190508060010160009054906101000a900473ffffffffffffffffffffffffffffffffffffffff1673ffffffffffffffffffffffffffffffffffffffff163373ffffffffffffffffffffffffffffffffffffffff161461080757600080fd5b8060040160009054906101000a900460ff1615610859576040517f08c379a000000000000000000000000000000000000000000000000000000000815260040161085090610fc7565b60405180910390fd5b8060040160029054906101000a900460ff16156108ab576040517f08c379a00000000000000000000000000000000000000000000000000000000081526004016108a290611033565b60405180910390fd5b60018160040160006101000a81548160ff021916908315150217905550817f083ec4064b35087af011df34f3d207f4f7f619945bf47aac7151dc1bb26cbcec60405160405180910390a25050565b60016020528060005260406000206000915054906101000a900473ffffffffffffffffffffffffffffffffffffffff1681565b600080828154811061094157610940610cb9565b5b906000526020600020906005020190508060010160009054906101000a900473ffffffffffffffffffffffffffffffffffffffff1673ffffffffffffffffffffffffffffffffffffffff163373ffffffffffffffffffffffffffffffffffffffff16146109ad57600080fd5b8060040160019054906101000a900460ff16156109ff576040517f08c379a00000000000000000000000000000000000000000000000000000000081526004016109f690610fc7565b60405180910390fd5b8060040160029054906101000a900460ff1615610a51576040517f08c379a0000000000000000000000000000000000000000000000000000000008152600401610a4890611033565b60405180910390fd5b8060040160009054906101000a900460ff16610aa2576040517f08c379a0000000000000000000000000000000000000000000000000000000008152600401610a99906110c5565b60405180910390fd5b60018160040160016101000a81548160ff021916908315150217905550817ffcc296b8bdd64e3f1d1faadef50cb2d6550f645316330fe57cb1dd7e0612ead060405160405180910390a25050565b600080fd5b6000819050919050565b610b0881610af5565b8114610b1357600080fd5b50565b600081359050610b2581610aff565b92915050565b600060208284031215610b4157610b40610af0565b5b6000610b4f84828501610b16565b91505092915050565b600073ffffffffffffffffffffffffffffffffffffffff82169050919050565b6000610b8382610b58565b9050919050565b610b9381610b78565b82525050565b610ba281610af5565b82525050565b60008115159050919050565b610bbd81610ba8565b82525050565b600060e082019050610bd8600083018a610b8a565b610be56020830189610b8a565b610bf26040830188610b8a565b610bff6060830187610b99565b610c0c6080830186610bb4565b610c1960a0830185610bb4565b610c2660c0830184610bb4565b98975050505050505050565b610c3b81610b78565b8114610c4657600080fd5b50565b600081359050610c5881610c32565b92915050565b60008060408385031215610c7557610c74610af0565b5b6000610c8385828601610c49565b9250506020610c9485828601610c49565b9150509250929050565b6000602082019050610cb36000830184610b8a565b92915050565b7f4e487b7100000000000000000000000000000000000000000000000000000000600052603260045260246000fd5b600082825260208201905092915050565b7f44656c6976657279206e6f7420636f6e6669726d656400000000000000000000600082015250565b6000610d2f601683610ce8565b9150610d3a82610cf9565b602082019050919050565b60006020820190508181036000830152610d5e81610d22565b9050919050565b7f416c72656164792072656c656173656400000000000000000000000000000000600082015250565b6000610d9b601083610ce8565b9150610da682610d65565b602082019050919050565b60006020820190508181036000830152610dca81610d8e565b9050919050565b600081905092915050565b50565b6000610dec600083610dd1565b9150610df782610ddc565b600082019050919050565b6000610e0d82610ddf565b9150819050919050565b7f5061796d656e7420746f20647269766572206661696c65640000000000000000600082015250565b6000610e4d601883610ce8565b9150610e5882610e17565b602082019050919050565b60006020820190508181036000830152610e7c81610e40565b9050919050565b7f4d7573742073656e642066756e647320746f20657363726f7700000000000000600082015250565b6000610eb9601983610ce8565b9150610ec482610e83565b602082019050919050565b60006020820190508181036000830152610ee881610eac565b9050919050565b7f4e487b7100000000000000000000000000000000000000000000000000000000600052601160045260246000fd5b6000610f2982610af5565b9150610f3483610af5565b9250828203905081811115610f4c57610f4b610eef565b5b92915050565b6000604082019050610f676000830185610b8a565b610f746020830184610b99565b9392505050565b7f416c7265616479205069636b6564205570000000000000000000000000000000600082015250565b6000610fb1601183610ce8565b9150610fbc82610f7b565b602082019050919050565b60006020820190508181036000830152610fe081610fa4565b9050919050565b7f457363726f7720616c726561647920636f6d706c657465640000000000000000600082015250565b600061101d601883610ce8565b915061102882610fe7565b602082019050919050565b6000602082019050818103600083015261104c81611010565b9050919050565b7f4974656d732073686f756c64206265207069636b6564207570206265666f726560008201527f206265696e672064656c69766572656400000000000000000000000000000000602082015250565b60006110af603083610ce8565b91506110ba82611053565b604082019050919050565b600060208201905081810360008301526110de816110a2565b905091905056fea2646970667358221220837f1dcb729a0be12bb1ef5483dcff9c20e132d46eac1c6588989d65137de46964736f6c634300081c0033",
  "linkReferences": {},
  "deployedLinkReferences": {}
}